:020000040800F2
:10000000000200201D390008ED390008EF39000812
:10001000F5390008F1390008F3390008F73900080C
:10002000F7390008F7390008F7390008F7390008F0
:10003000F7390008F739000843350008B52E0008E5
:10004000172D00081B2D00081F2D0008232D000868
:10005000272D00082B2D00082F2D0008332D000818
:10006000372D00083B2D00083F2D0008432D0008C8
:10007000472D00084B2D00084F2D0008532D000878
:10008000572D00085B2D00085F2D0008632D000828
:10009000672D00086B2D00086F2D0008732D0008D8
:1000A000772D00087B2D00087F2D0008832D000888
:1000B000872D00088B2D00088F2D0008932D000838
:1000C000972D00089B2D00089F2D0008A32D0008E8
:1000D000A72D0008AB2D0008AF2D0008B32D000898
:0C00E000B72D0008BB2D0008C12D000842
:1000EC00F8B506460C46150030D0002E02D104207F
:1000FC002870F1BD002C02D10C202870F1BDDFF866
:10010C0020078078002802D012202870F1BD3078AA
:10011C00401E03280DD803F0F1F90746204600F0E5
:10012C0086FA102808D3384603F0ECF90B20287017
:10013C00F1BD01202870F1BD214606F10F0000F041
:10014C0067FA384603F0DEF900202870F1BD80B55F
:10015C0002F04CFE00F096F900F0A2F900F0F6F96E
:10016C0000F066F903F086FA03F0AEFA03F0EEFA4B
:10017C0000F0ACF900F0CAF901F044FD02F03AFECF
:10018C00BDE8014003F06ABC38B5DFF89446E0796D
:10019C00012821D103F0B2F90546A078002801D03E
:1001AC00401EA070A078E178084312D100F022FA2A
:1001BC006079217988420CD0DFF8681651F820005C
:1001CC00A062816B491C81632069401C206103F093
:1001DC00AEF9284603F096F931BD10B5DFF840466C
:1001EC00E07900280BD100F005FA60792071DFF876
:1001FC00341651F82000A062206203F086F910BD7D
:10020C0010B5022003F068F803F078F9DFF8104617
:10021C000021E16103F076F9642003F05DF803F04E
:10022C006DF9E169616101216170BDE8104003F075
:10023C0069B970B502F027FE03F060F9DFF8E0450C
:10024C00216B491C216303F05DF9E079012848D149
:10025C00607A002803D0022805D002D307E00120E1
:10026C0008E0002006E001200146617202E0012056
:10027C0000216172002834D0E56A18E00021717702
:10028C00317F11F0080F0FD105F13401A2798B7871
:10029C001A43A27195F834201219127B4978114334
:1002AC0095F83420121911736D6903F02BF905F1CF
:1002BC001406B07F1F2814D003F020F9718B00298D
:1002CC00F2D0491E7183718B0029EDD1317F31F051
:1002DC00C801D3D0317F21F03701317701217177FB
:1002EC00CEE770BD4FF48F707047F8B50446DFF859
:1002FC001C53A07A465D30460719FF7A7D5D05EBED
:10030C00C605EDB22E46DFF81C7557F8266006F1CF
:10031C001C074FF0000CA7F812C0B960397DD2430E
:10032C00114039757B75397D11F0080F0AD1DFF852
:10033C00F0148A79BB7E1A438A714018017B7A7E4D
:10034C00114301732146304600F034F878680028D8
:10035C0004D00146304600F041F8F4612846F2BD65
:10036C0018B4DFF8BC140A6AD0610A6A92F8343007
:10037C001B18DB7A02F134046478234392F834209E
:10038C001218D372827A0B6A93F836301A4382723F
:10039C00086A90F8342052183430137B4478E443C4
:1003AC002340137304D18A798078C043104088713C
:1003BC0011BC704718B490F8342052183430D37AEA
:1003CC004478E4432340D372D27A002A04D18A7A47
:1003DC008078C0431040887211BC7047F0B490F81C
:1003EC00342000F1340398785B780C68DF430DE01F
:1003FC0015462D19EE7A3E40EE72ED7A002D03D1A2
:10040C00A57AC6433540A57251F8044F002CEFD1A4
:10041C00F0BC7047002181720B3004E0002200F820
:10042C00012B491CC9B20A46042AF7D370470000B5
:10043C0010B5134C4FF4A071201D00F0B2F8201D24
:10044C0004F1240100220DE0002300F8043B40F8E5
:10045C000B1B3F2300F8013B002300F8103B20311D
:10046C00521C92B21346092BEED30021017041604D
:10047C003F21C17300210174201D206010BD00BFFD
:10048C00F01F0020DFF89803002101638170C17018
:10049C000172C1710161C16181614161417070473B
:1004AC00DFF87C030021817100F10C01002204E0D3
:1004BC00002301F8013B521CD2B21346042BF7D394
:1004CC0000210171417181620162704780B50C4A53
:1004DC00032001B50021802003B411464FF6FF70B4
:1004EC0003B41F2302F5FE720021064801F020F927
:1004FC0006B000AA04491F2001F079F901BD00BF24
:10050C00F01900204F0600088439000880B50C4A09
:10051C00032001B50021802003B411464FF6FE7074
:10052C0003B41E2302F5FE720021064801F000F907
:10053C0006B000AA04491E2001F059F901BD00BF04
:10054C00F0170020670600089439000838B5B44C41
:10055C004FF4CF6104F1340000F023F88021B1484E
:10056C0000F01FF804F1340004F19001002208E0BF
:10057C0041613F2580F84C5000255D705C305C314A
:10058C00521C00F14C03112AF2D3002141613F218E
:10059C0080F84C1000205870E06204F13400606266
:1005AC0031BD002202E000F8012B491E89B200295E
:1005BC00F9D1704738B502F0A1FF0446984DA878E0
:1005CC00E978084311D100F015F868792979884247
:1005DC000BD0944951F82000A862816B491C8163AF
:1005EC002869401C286102F09EFF2046BDE832407D
:1005FC0002F088BF8A4805498279525C13461B1861
:10060C001B7B595C01EBC201417170470C30000837
:10061C000246002005E011F8013B02F8013B401CAA
:10062C00C0B20B78002BF6D1002111707047014637
:10063C00002002E0491C401CC0B20A78002AF9D103
:10064C00704780B502F05AFF7549CA69521CCA61DD
:10065C0002F058FF02F0D1FBF4E710B5704C02E049
:10066C00C82002F039FE60780028F9D06069642156
:10067C00B0FBF1F06061002803D12070FF2001F085
:10068C003CF902F03BFFE169A1610021E16102F05C
:10069C0039FFA0696169B0FBF1F0C0F16400207012
:1006AC0002F0ADFB00F004F8642002F015FEE8E760
:1006BC001CB5002415E000A901F0E2F800280ED1C9
:1006CC002046584951F82000002808D0012806D0AF
:1006DC00C168826802EB8101416401998164641CE8
:1006EC00E4B220462028E6D313BD2DE9F44F05468D
:1006FC008A469B460A9E0B9F0C9C02F0FFFEDFF87D
:10070C002081D8F82490B9F1000F00F08380D9F83B
:10071C001410C8F8241002F0F5FEC9F800A009F175
:10072C00300A8AF80250002089F830008AF801005B
:10073C00A9F82E00C9F80470C9F80C600098C9F823
:10074C000800A9F81040A9F812B000208AF8070098
:10075C00E8088AF8040005F007008AF80300012075
:10076C009AF9041088408AF8060001209AF90310BF
:10077C0088408AF805000020C9F81C00C9F8200040
:10078C00C9F82800C9F82400CAF80800CAF81000F3
:10079C00CAF80C00CAF81400CAF818003F208AF8EE
:1007AC001C0000208AF81D00484602F06AFB4846EF
:1007BC0002F021FB02F0A2FE1A4941F82590D8F86C
:1007CC002C10C9F814100021C9F81810D8F82C10E6
:1007DC00002901D0C1F81890C8F82C9098F8061090
:1007EC009AF80620114388F806109AF80410414430
:1007FC00097B9AF8052011439AF80420424411739E
:10080C0098F80810491C88F8081002F07BFE0020AC
:10081C00BDE8F28F02F076FE4220BDE8F28F0000B8
:10082C00000200201C24002080B502F057FAFFF7CC
:10083C008EFC0E4A032001B50021802003B4114622
:10084C00032003B4034602F5FE720021084800F0B1
:10085C006FFF06B08DF8000000AA0649032000F0D7
:10086C00C6FFFFF7BAFC002002BD00BFF015002048
:10087C0085080008D4390008F8B500F0C3FA02F076
:10088C0025FBFFF7BDFC00F0EFF900F07DF800F060
:10089C0089F8002000F004FCC825012000F0D7FCEA
:1008AC006843411200EB9150801200F10A040027BA
:1008BC001BE03046C0B200F083FB23469BB2002203
:1008CC001146084602F02CFD012000F0C0FC6843E4
:1008DC00411200EB9150801200F10A043046C0B274
:1008EC0000F0DEFB761EE4D17F1C042F1FD2012604
:1008FC0019E03046C0B200F063FB23469BB20022E5
:10090C001146084602F00CFD012000F0A0FC6843E3
:10091C00411200EB9150801200F10A043046C0B233
:10092C0000F0BEFB761C112EE3D30F26DBE700266E
:10093C00042EBCD2002000F043FB23469BB20022C5
:10094C001146084602F0ECFC012000F080FC6843E4
:10095C00411200EB9150801200F10A04002000F0CB
:10096C009FFB23469BB200221146084602F0D8FC9E
:10097C00012000F06CFC6843411200EB9150801296
:10098C0000F10A04761CD3E710B582B0564C002057
:10099C0001F06CFC206000AA0149FFF7A1FB13BD1C
:1009AC007439000838B51A4C032001B500214FF4F6
:1009BC00807003B421460C2003B4034604F57F7207
:1009CC000021144800F0B4FE06B08DF80000124D62
:1009DC0000AA29460C2000F00AFF032001B50021D3
:1009EC00802003B404F58061042003B4034604F2B0
:1009FC00FC520021094800F09BFE06B08DF8000067
:100A0C0000AA05F10C01042000F0F1FE31BD00BF7D
:100A1C00AC080020830A0008EC3800082D0A0008F6
:100A2C00F8B500260125344618E06D1CEDB22946B8
:100A3C002D48006801F0CCFC3E46022000F056FA2E
:100A4C000746012803D1002C01D100F0B0FB3C4635
:100A5C00142300221146084602F062FC012000F02B
:100A6C0045FA07460128E7D1002EE5D1284604288F
:100A7C00DBD10125DBE738B51021022001F0DEFEC9
:100A8C0001F086FE00F08FFB00F030F8002301220D
:100A9C001946084602F044FC0124254601E000F00A
:100AAC0041F800AA40F24D110F48006801F002FC19
:100ABC009DF80010002900D10446AC4202D001F090
:100ACC0067FE254620460228E9D0032802D00428D8
:100ADC0003D005E000F05EF8E3E700F095F8E0E7FE
:100AEC0000F004F8DDE70000DC26002070B55C4C5B
:100AFC000B4D29462046FFF78BFD5A4E05F114018C
:100B0C003046FFF785FD22460021084601F0DFFE46
:100B1C00324600210120BDE8704001F0D8BE00BF74
:100B2C00E837000870B54E4D194C21462846FFF7A2
:100B3C006FFDFFF7D7FB6421B0FBF1F202F130033C
:100B4C002B730A2302FB1101B1FBF3F13031A973B2
:100B5C00B0FBF3F101FB13003030E873414E04F1AC
:100B6C0014013046FFF754FD04224FF47A7106F15C
:100B7C000C0000F011F92A460021084601F0A7FEEE
:100B8C00324600210120BDE8704001F0A0BE00BF3C
:100B9C0010380008F8B5324C184D29462046FFF79E
:100BAC0037FD174800780A26B0FBF6F101F1300248
:100BBC00A27201FB16003030E0722A4F05F11401CD
:100BCC003846FFF725FD00F058F90E49B0FBF1F05F
:100BDC00B0FBF6F101F13002BA7201FB16003030B5
:100BEC00F87222460021084601F071FE3A460021B7
:100BFC000120BDE8F84001F06ABE00BF383800089B
:100C0C000002002040420F0070B5154C124D2946D1
:100C1C002046FFF7FDFC5F480168082204F108003C
:100C2C0000F0BAF80F4E05F114013046FFF7F0FC56
:100C3C0008220A48016806F1080000F0ADF82246C7
:100C4C000021084601F043FE324600210120BDE898
:100C5C00704001F03CBE00BF60380008100200205C
:100C6C00882600209C26002080B54948C16A8188CE
:100C7C00017841788178C07801F0DCFB074801F0FD
:100C8C00E9FBFA2001F0E9FB00F098FB4FF4E130AE
:100C9C0000F090FEBDE8014001F074BFAD0C0008FF
:100CAC002DE9F84F3A4CE06A401CE062012000F05C
:100CBC001DF92070012000F019F96070012000F07E
:100CCC0015F9A070012000F011F9E070012000F07E
:100CDC00BEFA64214843C11200EB11500013A080EE
:100CEC002C48056825480668254807682548D0F82B
:100CFC0000802548D0F80090A06A281AB0F57A7FB9
:100D0C0039D302F0C3FD8246DFF880B0A069301AF7
:100D1C0002F0BCFD514602F0EFF8594602F06EFAB3
:100D2C00A060E069381A02F0B1FD514602F0E4F817
:100D3C00594602F063FAE060206AA8EB000002F06A
:100D4C00A5FD514602F0D8F8594602F057FA206139
:100D5C00606AA9EB000002F099FD514602F0CCF854
:100D6C00594602F04BFA6061A562A661E761C4F8CE
:100D7C002080C4F82490BDE8F18F00BF6C260020C1
:100D8C0070260020742600207826002000007A446B
:100D9C003C26002030020020F0B40024012325461C
:100DAC00571E03E00A2673436D1CEDB22E46BE425D
:100DBC00F8DB002B1BD0B1FBF3F21546002C0DD148
:100DCC00002D03D001243035057009E0012B02D130
:100DDC003025057004E02025057001E030350570E4
:100DEC00401C02FB13110A22B3FBF2F3E1E7F0BC47
:100DFC00704701F04BBB7047704701F04FBB704719
:100E0C0001F05EBB80B501F011F84FF4803001F0B9
:100E1C0029F801F041F8002001F074F8002001F0ED
:100E2C007FF84FF4806001F074F84FF4004001F04B
:100E3C007FF8022002F0A6FC102002F0ACFC4FF46C
:100E4C00E0114FF4803001F043F8012001F048F834
:100E5C00392001F0E3F80028FAD0022001F046F81E
:100E6C0001F04BF80828FBD100F071F800F00EF8F7
:100E7C0000F086F9BDE80140B0E100B585B000A8EE
:100E8C0001F05EF8019805B000BDF6E780B50121D0
:100E9C00042001F0A7F80121082001F0A3F801219A
:100EAC00102001F09FF80120ADF8000004208DF80F
:100EBC00030000A9DFF8C40201F07CFE2020ADF88D
:100ECC00000004208DF8030000A9DFF80C0301F0EA
:100EDC0071FE42F21000ADF8000004208DF8030002
:100EEC0000A9DFF8840401F065FE01BD10B50024F3
:100EFC00012806D002280ED0032815D004281CD0B7
:100F0C0023E04FF40051DFF8600401F0A6FE002846
:100F1C001BD0012419E02021DFF8BC0201F09DFE5A
:100F2C00002812D0012410E01021DFF83C0401F05D
:100F3C0094FE002809D0012407E00121DFF83C02CF
:100F4C0001F08BFE002800D00124204610BD80B596
:100F5C000121042001F046F80121082001F042F89B
:100F6C000121102001F03EF84FF4C060ADF80000F4
:100F7C0003208DF8020010208DF8030000A97F4893
:100F8C0001F018FE4FF6C040ADF8000003208DF8BC
:100F9C00020010208DF8030000A9DFF83C0201F0DC
:100FAC0009FEC020ADF8000003208DF802001020CF
:100FBC008DF8030000A9DFF8B00301F0FBFD01BDC3
:100FCC0080B510286BD8DFE800F0096A6A6A6A1AE3
:100FDC0021282E343B424950575E65004FF4C061C6
:100FEC00664801F047FE4FF6C0417B4801F042FED7
:100FFC00C021DFF87403BDE8044001F03BBE4FF4A0
:10100C0000715E48BDE8044001F034BE4FF48061CD
:10101C005A48BDE8044001F02DBE40216E48BDE8A1
:10102C00044001F027BE80216B48BDE8044001F06C
:10103C0021BE4FF480616848BDE8044001F01ABE3F
:10104C004FF400616448BDE8044001F013BE4FF456
:10105C0080516148BDE8044001F00CBE4FF40051D2
:10106C005D48BDE8044001F005BE4FF480415A488C
:10107C00BDE8044001F0FEBD4FF400415648BDE808
:10108C00044001F0F7BD4021DFF8DC02BDE804406C
:10109C0001F0F0BD8021DFF8D00201F0EBFD01BDC5
:1010AC0080B5102869D8DFE800F009686868681A0C
:1010BC0021282E343B424950575E64004FF4C061E6
:1010CC002E4801F0D5FD4FF6C041434801F0D0FD4C
:1010DC00C021DFF89402BDE8044001F0C9BD4FF413
:1010EC0000712648BDE8044001F0C2BD4FF4806198
:1010FC002248BDE8044001F0BBBD40213648BDE8A4
:10110C00044001F0B5BD80213348BDE8044001F036
:10111C00AFBD4FF480613048BDE8044001F0A8BD7C
:10112C004FF400612C48BDE8044001F0A1BD4FF420
:10113C0080512948BDE8044001F09ABD4FF400519C
:10114C002548BDE8044001F093BD4FF4804122488E
:10115C00BDE8044001F08CBD4FF400411E48BDE8D1
:10116C00044001F085BD40217F48BDE8044001F0FA
:10117C007FBD80217C4801F07BFD01BD0008014052
:10118C0080B50121082000F02DFF0120ADF80000F2
:10119C0003208DF8020010208DF8030000A90E48E2
:1011AC0001F008FD01BD01210B4801F063BD10B534
:1011BC00094C204601F059FD10F0010F05D1012119
:1011CC002046BDE8104001F053BD01212046BDE88A
:1011DC00104001F04FBD0000000C014010B586B06E
:1011EC0001214FF4007000F0FDFE0121102000F0F1
:1011FC00F9FE2020ADF8000000208DF8030000A9B6
:10120C00594801F0D7FC002001908DF8080001200E
:10121C008DF809004FF46020039000200490012009
:10122C008DF814000E4C01A9204601F069FF022331
:10123C0001220F21204601F09BFF0121204601F0E5
:10124C0081FF0121204601F088FF06B010BD80B55A
:10125C0001460020012902D1014801F0CBFF02BD5B
:10126C000024014070B5054600F079F800F06DF8E7
:10127C002C093D4E2146304601F0FAFCE04300F0CB
:10128C000F01304601F0F6FC4FF47A7000F033F8A1
:10129C0000F060F84FF47A7000F02DF800F055F87B
:1012AC0005F00F01304601F0E3FCE84300F00F01BC
:1012BC00304601F0DFFC4FF47A7000F01CF8BDE80A
:1012CC00704047E038B5044600F049F800F03DF8AE
:1012DC002409254D2146284601F0CAFCE04300F0C4
:1012EC000F01284601F0C6FC4FF47A7000F003F8A9
:1012FC00BDE831402EE010B50446FFF7BEFD4FF4BB
:10130C007A71B0FBF1F0B4FBF0F0801C80B2BDE858
:10131C00104001F0E1BF80B541F20F30ADF8000094
:10132C0003208DF8020010208DF8030000A90E4850
:10133C0001F040FC01BD0C4A00284FF480711046AE
:10134C0001D101F097BC01F093BC4FF480510648D9
:10135C0001F08EBC4FF48051034801F08BBC4FF46C
:10136C000071014801F086BC00100140E0B54FF659
:10137C00FF70ADF8040000200090ADF806000121CC
:10138C00084600F03DFE00A94FF0804002F03EF907
:10139C0000214FF0804002F068F901224FF4807177
:1013AC004FF0804002F05EF901214FF0804002F0D6
:1013BC004DF907BD4FF0804002F059B9C5480021E6
:1013CC00016041608160C16001616249416100213D
:1013DC008161704778B40C46022A02D2002072BC9C
:1013EC0070474178057805EB012189B2801CB94D15
:1013FC002E68761C2E606E68761C6E60012906D0F5
:10140C0002290CD0042906D007290CD00FE0214664
:10141C0001B070BC29E0214601B070BC9CE02146B3
:10142C0001B070BCC4E0214601B070BCF8E0F921F9
:10143C00204674BC01E00020704711B581B00C4609
:10144C00A4480169491C01614FF4004101A800F056
:10145C0063F9214601A800F05AF9FFF7ECFF0146A9
:10146C0001A800F054F9042016BD13B582B0042A6B
:10147C0005D0FE210398FFF7E0FF04B010BD02A8D1
:10148C0000F02FF9044640F20111401A012807D947
:10149C004FF48071401A03D04FF46061401A22D18E
:1014AC0048F2010103A800F037F9012103A800F06C
:1014BC002EF9FFF7C0FF014603A800F028F940F20F
:1014CC000110241A012C14D94FF48070241A2CD03A
:1014DC004FF46060241A16D0641E31D00020001D19
:1014EC0080B204B010BDFC210398FFF7A6FF04B036
:1014FC0010BD802103A800F00FF9002103A800F013
:10150C000BF90420EBE7012103A800F005F90421F5
:10151C0003A800F001F9022103A800F0FDF807214F
:10152C0003A800F0F9F80820D9E76A480949416195
:10153C00042200F11401039800F088FD0420CEE78A
:10154C00C8200090042200A9039800F07FFD04201D
:10155C00C5E700007856341233B581B0082A04D0A0
:10156C00FE210298FFF769FF3EBD02F025F95949AB
:10157C008C6902F025F9200009D001A800F0B1F81F
:10158C00054601A800F0B8F801462846A04748F2E5
:10159C00040102A800F0C0F8012102A800F0B7F87D
:1015AC00FFF749FF014602A800F0B1F804203EBD48
:1015BC0073B51D46082A04D0FE210198FFF73DFFA4
:1015CC0076BD00A800F08DF8044600A800F094F851
:1015DC0006462046001D854204DAFD210198FFF7DE
:1015EC002CFF76BD3B488168491C8160C16861183D
:1015FC00C16048F2020101A800F08EF8012101A897
:10160C0000F085F8FFF717FF014601A800F07FF8FE
:10161C0022463146019800F019FD201D80B276BD9E
:10162C002DE9F84F82B082460C469346BBF1070F6A
:10163C0005D2FE21204603B0BDE8F04FFDE6009434
:10164C000425072004F8010B802004F8010B01206D
:10165C0004F8010BFFF7EFFE04F8010B0726002737
:10166C00B84609E07F1CBFB2C8441FFA88F84A4646
:10167C00204600F0EBFC4C443046834520D39AF8CE
:10168C0000909AF804009AF8031001EB00209AF8E5
:10169C00021001EB00209AF8011001EB00210AF175
:1016AC00050A761DB6B24D44ADB2BDF808002A4607
:1016BC009042D7D2FD21009803B0BDE8F04FBCE6B4
:1016CC000448816879188160C1684144C16028462A
:1016DC00BDE8FE8F6C26002001684A1C0260087869
:1016EC00704738B50446FFF7F7FF05462046FFF76D
:1016FC00F3FF45EA002032BD38B50446FFF7F1FF91
:10170C0005462046FFF7EDFF45EA004032BD026872
:10171C00531C03601170704738B504460D46C9B2AE
:10172C00FFF7F5FF290A2046BDE83440EFE700003B
:10173C002DE9F74F1C46DDF830B0DDF834900E9DE6
:10174C00DDF83CA0DDF84080202C02D32A20BDE837
:10175C00FE8F01F0D3FE48490978002904D001F02E
:10176C00D1FE3C20BDE8FE8F2646DFF82C7257F8E0
:10177C002610002935D1012147F8261001F0C2FEB0
:10178C00424692B22946484600F008F943469BB2BD
:10179C00029A0199009801F034FB84461FFA88F8EC
:1017AC002DE900415146284603B45B469BB24A469C
:1017BC0061462046FEF799FF04B0040007D1DFF81C
:1017CC00BC000078012809D1FEF7F4FE06E001F018
:1017DC0095FE002147F8261001F094FE2046BDE846
:1017EC00FE8F01F08FFE2820BDE8FE8F0000F8B5BB
:1017FC0006460C4615003DD0202E04D3FF2E02D0F9
:10180C002A202870F1BD002C02D10C202870F1BDCB
:10181C0019480078002802D012202870F1BD01F080
:10182C006DFE0746FF2E03D15A48006890F83260CF
:10183C00594850F82660002E05D1384601F062FE5A
:10184C0043202870F1BD012EF7D02046FEF7EFFEA5
:10185C00102805D3384601F055FE41202870F1BD03
:10186C00214606F14C00FEF7D3FE384601F04AFE45
:10187C0000202870F1BD00000202002007020020A9
:10188C00F8B505460C46202D03D3FF2D01D02A2098
:10189C00F2BD002C01D10920F2BD00202060606057
:1018AC0001F02CFEFF2D03D13A49096891F8325012
:1018BC00394951F82510002903D101F023FE4320AA
:1018CC00F2BD0129F9D00A8A12F0010F03D101F0FF
:1018DC0019FE4520F2BD0025CE688F6801F012FE7E
:1018EC0000E06D1C57F8040B0028FAD0A80020600B
:1018FC00701B800060600020F2BDF8B505461F2DFE
:10190C0001D14720F2BD03D3FF2D01D02A20F2BD17
:10191C0001F0F4FD1F490968FF2D03D191F83250F5
:10192C00012406E091F832108D4201D1012400E02F
:10193C000024194951F82510002903D101F0E2FDCA
:10194C004820F2BD012903D101F0DCFD4320F2BD9A
:10195C0001F1300213790D4D5E5D5779FF433E4026
:10196C005E5505D10A4B1D789279D2432A401A70E4
:10197C0091F8302042F0080281F8302001F0C2FDCD
:10198C00012C01D1FEF716FE0020F2BD0C02002046
:10199C0006020020200200201C24002002F003027A
:1019AC00032A06D10022002902E0491E40F8042B2C
:1019BC00FBD1704710B504468F480021017041706F
:1019CC0001818170C170C160016101F0E7FD2046A9
:1019DC00BDE8104001F04EB880B501F007FE00F0F4
:1019EC00DDF80100F9D08449088100F0FBF8F4E738
:1019FC0010B5814CE168491CE16021780A2953D863
:101A0C00DFE801F0060D151D2529373A3D484B003E
:101A1C0075284BD101202070BDE81040DCE0432834
:101A2C0002D10220207010BD0020207010BD502863
:101A3C0002D10320207010BD0020207010BD722830
:101A4C0002D10420207010BD0020207010BDA08099
:101A5C000520207010BDA18851EA0020A08001D083
:101A6C00812802D30020207010BDE0800620207059
:101A7C0010BD0720207010BD0820207010BD00F094
:101A8C009FF8A188481EA08080B200280ED10920A2
:101A9C00207010BD0A20207010BD2F2801D100F03D
:101AAC008DF80020207010BD0020207010BD0000AB
:101ABC0010B5514C6078002802D12189002902D040
:101ACC002169491C21610A2862D8DFE800F0061759
:101ADC001D232930373D43545A002089002808D053
:101AEC00752001F055F80120A07060700020608115
:101AFC0010BDA070BDE8104001F04EB8432001F0BD
:101B0C0047F80220607010BD502001F041F803200E
:101B1C00607010BD722001F03BF80420607010BDA5
:101B2C002089C0B201F034F80520607010BD208906
:101B3C00000A01F02DF80620607010BD002001F0A5
:101B4C0027F80720607010BD002001F021F8082054
:101B5C00607010BD60891849405C01F019F860890B
:101B6C00401C6081218980B2884216D309206070A4
:101B7C000020208110BD002001F00AF80A206070BE
:101B8C0010BD2F2001F004F800206070E07010BD33
:101B9C0000206070A07000F0FFFF10BD1648C178E7
:101BAC00012901D1002070470121C1708023C28816
:101BBC0001490848FFF70EBC1C25002001F01EBD92
:101BCC0007490A88802A03D2024BD054501C088043
:101BDC00704700009C2400200148002101807047C0
:101BEC000A27002080B504488078002803D1FFF72D
:101BFC005FFF00F0D7FF01BDB026002089480068C8
:101C0C0000F098BD70B582B0284C4FF4507120464E
:101C1C00FEF7C7FC40218448FEF7C3FC204604F1C4
:101C2C003401002210E0642300F8313B002300F85B
:101C3C00253940F8141B3F2300F8013B002300F822
:101C4C00133B3431521C92B213460F2BEBD364214D
:101C5C00017000F1200100224A74C2603F2280F81A
:101C6C002020002048706E4800210160114801803E
:101C7C00114810210180114804604D4D012000F0E5
:101C8C00B7FC2860674E002000F0B2FC3060084CB6
:101C9C0000AA21462868FEF723FA00AA04F10C01D9
:101CAC003068FEF71DFA00F00BF873BDB01200207F
:101CBC00043900080627002004270020FC260020F9
:101CCC0080B50C4A032001B50021802003B41146D5
:101CDC004FF6FD7003B41D2302F5FE720021064879
:101CEC00FFF726FD06B000AA04491D20FFF77FFD73
:101CFC0001BD00BFF01B0020C11D0008B439000855
:101D0C00032280F83120012905D1C169444A1268A7
:101D1C005118416106E081690029F6D0404A1268E9
:101D2C0051184161416901F007013F4A02EBC101C1
:101D3C000A68002A0860C26002D101228A8003E08E
:101D4C0010618A88521C8A8000210161704718B486
:101D5C0000F10C018A6802F00702334B03EBC2025C
:101D6C001368834206D1C3681360002B08D000248B
:101D7C001C6105E04B68C468DC60002C00D023615A
:101D8C00012380F831300023C360184648609088E6
:101D9C00401E908011BC704780B500AA00210448F9
:101DAC00006800F049FC01BD0148006800F0C2BCAD
:101DBC00F426002070B582B0194C01E0FFF7F4FF57
:101DCC0000AA00211748006800F036FCFFF7E4FF7A
:101DDC002068401C206000F00700134951F8306067
:101DEC0004E006F13000022141702E46002EE5D0B1
:101DFC00301D8568216802699142F6D17268110024
:101E0C0002D04168304690473046FFF7A0FF96F865
:101E1C0030000228E5D101213046FFF771FFE4E7DD
:101E2C00F0260020F8260020FC25002086480168BA
:101E3C0041F0010101604168084A114041600168AC
:101E4C00074A11400160016821F48021016041685A
:101E5C0021F4FE0141600021816070470000FFF811
:101E6C00FFFFF6FE78490A6822F480320A600A689D
:101E7C0022F480220A60B0F5803F03D0B0F5802FA9
:101E8C0005D07047086840F48030086070470868D7
:101E9C0040F4A0200860704710B50C4C312000F0C5
:101EAC00BDF820706068401C60602078002804D168
:101EBC00606840F2FF118842F0D1312000F0AEF89A
:101ECC00401E8041C043C00F10BD00BFD42600206F
:101EDC00434A136823F47C1318430843106070477B
:101EEC0001490860704700BF600042423C490A68E3
:101EFC0003239A431043086070473948006800F088
:101F0C000C00704736490A6822F0F0021043086052
:101F1C00704733490A6822F4E06210430860704746
:101F2C002F490A6822F4605242EAC00008607047E8
:101F3C002B490A6822F440421043086070470000A5
:101F4C0018B427490A6802F00C02082A02D0214A68
:101F5C00026017E00A6802F47012920C921C0B6873
:101F6C0013F4803303D11C4B5A4302600AE00B6814
:101F7C0013F4003F03D0184B5A43026002E0154B98
:101F8C005A4302600A6802F0F003144A04681B0901
:101F9C009B5C24FA03F343600B6803F4E06344682E
:101FAC001B0A9B5C24FA03F383600B6803F46053F5
:101FBC004468DB0A9B5C24FA03F3C360096801F4F0
:101FCC004041C36802EB9131097CB3FBF1F1016133
:101FDC0011BC704700127A0000093D004C39000812
:101FEC0004100240054A0029116802D00843106011
:101FFC007047C04308401060704700BF1810024083
:10200C00054A0029116802D0084310607047C0438C
:10201C0008401060704700BF1C10024041090A4A7A
:10202C00012901D1116804E0022901D1116A00E0F3
:10203C00516A012200F01F0002FA00F00840401E15
:10204C008041C043C00F704700100240002800D1EF
:10205C007047002900D17047002A00D170472DE944
:10206C00F81F00F0030301F00304A34211D1C3F1E4
:10207C00040303F00303012B1DD3012A00D2F2E069
:10208C0011F8014B00F8014BA3F10103A2F101027D
:10209C00F1E700F0010301F00104A34200D094E049
:1020AC00012B44D311F8014B00F8014BA3F10103B0
:1020BC00A2F10102F4E7B2F5B47F26D3B1E8F81F20
:1020CC00A0E8F81FB1E8F81FA0E8F81FB1E8F81F66
:1020DC00A0E8F81FB1E8F81FA0E8F81FB1E8F81F56
:1020EC00A0E8F81FB1E8F81FA0E8F81FB1E8F81F46
:1020FC00A0E8F81FB1E8F81FA0E8F81FB1E8F81F36
:10210C00A0E8F81FA2F5B472D5E7282A06D3B1E8E7
:10211C00F81FA0E8F81FA2F12802F6E7042A06D35C
:10212C0051F8043B40F8043BA2F10402F6E7202AE4
:10213C0042D331F8023B20F8023B31F8023B20F845
:10214C00023B31F8023B20F8023B31F8023B20F80D
:10215C00023B31F8023B20F8023B31F8023B20F8FD
:10216C00023B31F8023B20F8023B31F8023B20F8ED
:10217C00023B31F8023B20F8023B31F8023B20F8DD
:10218C00023B31F8023B20F8023B31F8023B20F8CD
:10219C00023B31F8023B20F8023B31F8023B20F8BD
:1021AC00023B31F8023B20F8023B31F8023B20F8AD
:1021BC00023BA2F12002BAE7022A06D331F8023B15
:1021CC0020F8023BA2F10202F6E7102A42D311F8E2
:1021DC00013B00F8013B11F8013B00F8013B11F801
:1021EC00013B00F8013B11F8013B00F8013B11F8F1
:1021FC00013B00F8013B11F8013B00F8013B11F8E1
:10220C00013B00F8013B11F8013B00F8013B11F8D0
:10221C00013B00F8013B11F8013B00F8013B11F8C0
:10222C00013B00F8013B11F8013B00F8013B11F8B0
:10223C00013B00F8013B11F8013B00F8013B11F8A0
:10224C00013B00F8013B11F8013B00F8013BA2F106
:10225C001002BAE7012A06D311F8013B00F8013B42
:10226C00A2F10102F6E7BDE8F81F704738B5044645
:10227C0056480078002801D0002032BD01F03EF90C
:10228C000B490A68150001D052680A6001F03AF94E
:10229C00002D0BD001202870002028816C603F207D
:1022AC00E873002028742846FEF7B4F8284632BD9F
:1022BC00F01F00202DE9F84306460C46150002D10C
:1022CC000020BDE8F283002E04D1042028700020E9
:1022DC00BDE8F2833078012804D00120287000205A
:1022EC00BDE8F28339480078002804D00220287019
:1022FC000020BDE8F28333480078002804D00D207C
:10230C0028700020BDE8F28301F0F8F80746D6F8F3
:10231C000480B8F1000F09D000207060384601F03D
:10232C00F1F8002028704046BDE8F283DFF8989061
:10233C00D9F8000090F8301041F0020180F830100C
:10234C00D9F80000002180F83110D9F80000C485BC
:10235C003046FEF705F8384601F0D4F8FEF72AF9B6
:10236C0001F0CCF80746D9F8000000F12401497BB4
:10237C00002902D0022905D007E0D0F824800020E3
:10238C00287007E00E20287004E03146FEF712F8A2
:10239C000A202870D9F80000002180F83010D9F8F4
:1023AC00000080F83110D9F80000C161D9F80000A4
:1023BC000162D9F800004162384601F0A3F84046AA
:1023CC00BDE8F2830302002020020020020200205C
:1023DC0070B505460C46002D01D1042070BD002CB3
:1023EC0001D1032070BD2878012801D0012070BDD7
:1023FC0001F084F80646A87A00280CD000230222AB
:10240C0021462846FDF771FF304601F07BF8FEF7B8
:10241C00D1F8002070BD6868002804D0304601F067
:10242C0071F8142070BD6C60304601F06BF8002020
:10243C0070BD000080B5642000F00FF8002000F0A3
:10244C0009F800F03FF8FEF791FF0F4800214160BA
:10245C00018001BD65494860704764490880704738
:10246C0038B501F04BF80446FEF7A4FF80B20649DC
:10247C000A88821A92B20880486815184D60204666
:10248C0001F040F8284632BDCC26002010B5044699
:10249C00FFF7E6FF20640020E06310BD80B5FFF776
:1024AC00DFFF05490968CA6B82180B6CD21ACA6324
:1024BC0002490968086401BD20020020280200209E
:1024CC00CEE7000080B50C4A032001B50021802026
:1024DC0003B411461C2003B4034602F5FE7200211E
:1024EC000648FFF725F906B08DF8000000AA04494C
:1024FC001C20FFF77CF901BDF01D00201125000800
:10250C00A43900082DE9F0410025364C2A4609E093
:10251C0004EB8001C1F8C0200A64114644F8201075
:10252C006D1CADB228461028F2D3304C2388002203
:10253C001146084600F0F4FE6068010000D08047A8
:10254C0000252E46284F13E0786C3968401A642118
:10255C00484301F09BF98046F868800001F096F939
:10256C000146404600F0C8FC2064BF696D1CADB24A
:10257C00284610281AD2002F18D0012F16D0194C2B
:10258C0004EB8004F86BD4F8C010401AD4F8801017
:10259C00490801EB5000C4F88000F96BC4F8C01076
:1025AC008619F8680028CFD12064DEE700250D4C91
:1025BC0028461028B9D22F4604EB8700D0F88000AB
:1025CC006421484301F062F98046304601F05EF91F
:1025DC000146404600F090FC44F827006D1CADB25B
:1025EC00E6E700BF3421002034020020C42600207E
:1025FC0038B504464E480078002801D0002032BD82
:10260C0000F07CFF0B490A68150001D052680A6083
:10261C0000F078FF002D0BD0032028702C810020B7
:10262C0068603F20E873002028742846FDF7F2FE0E
:10263C00284632BDF01F00202DE9F04106460D461C
:10264C0014006ED0002E03D104202070BDE8F08160
:10265C003078032803D001202070BDE8F081344885
:10266C000078002803D002202070BDE8F0812E48AD
:10267C000078002803D00D202070BDE8F08100F018
:10268C003DFF07463089002808D0401E308138466F
:10269C0000F038FF00202070BDE8F081DFF88C805E
:1026AC00D8F8000090F8301041F0010180F830109B
:1026BC00D8F80000002180F83110D8F80000C5854A
:1026CC003046FDF74DFE384600F01CFFFDF772FF5B
:1026DC0000F014FF0746D8F8000090F831100029DC
:1026EC0002D0022903D005E00020207007E00E2064
:1026FC00207004E03146FDF75DFE0A202070D8F80A
:10270C000000002180F83010D8F8000080F831105B
:10271C00D8F80000C161D8F800000162384600F01A
:10272C00F1FEBDE8F08100BF030200202002002072
:10273C000202002038B5040001D1042032BD2078FB
:10274C00032801D0012032BD00F0D8FE0546A07A46
:10275C0000280CD00023012219462046FDF7C5FDA8
:10276C00284600F0CFFEFDF725FF002032BD208962
:10277C004FF6FF71884206D0401C2081284600F09D
:10278C00C1FE002032BD284600F0BCFE322032BD16
:10279C0080B500F0CDFF0020FEF7CDFD0120FEF747
:1027AC0061FD4FF4FA60FEF7A6FDBDE8014000F0B4
:1027BC00C7BF38B505460C460020FEF7BCFD002D02
:1027CC0005D0022D28D020D3032D2ED031BD524858
:1027DC004178012912D100784008844206D2A4F134
:1027EC008000C0B2BDE83240FEF73CBDA4F1400110
:1027FC00081AC0B2BDE83240FEF734BDA4F1800027
:10280C00C0B2BDE83240FEF72DBDA4F14000C0B20D
:10281C00BDE83240FEF726BD3F48007820188038CE
:10282C00C0B2BDE83240FEF71DBD3B480078201811
:10283C004038C0B2BDE83240FEF714BD38B505468D
:10284C000C4600F067FFFEF766FD334845700470D8
:10285C000020FEF770FD4CF25030FEF74CFD30209E
:10286C00FEF730FD41F288342046FEF744FD30205F
:10287C00FEF728FD2046FEF73EFD3020FEF722FD38
:10288C002046FEF738FD2020FEF71CFD2046FEF703
:10289C0032FD2820FEF7E6FC4FF4FA60FEF72BFD24
:1028AC000C20FEF7DFFC4FF4FA60FEF724FD01204C
:1028BC00FEF7D8FC4FF4FA60FEF71DFD0620FEF77C
:1028CC00D1FC4FF4FA60BDE83240FEF714BDF8B508
:1028DC0006460C461546104F787886421BD238783F
:1028EC00844218D200F024FF21463046FFF761FFE6
:1028FC000120FEF720FD05E015F8010BFEF7B2FCF8
:10290C00641CE4B220463978884202D22878002828
:10291C00F2D100F015FFF1BD0C27002030B585B0C9
:10292C0005460C46288A4CF6FF710840E18808439E
:10293C002882A8894EF6F3110840A1880843218902
:10294C00084361890843A881A88A4FF6FF410840D3
:10295C00A1890843A88200A8FFF7F2FA0E48854225
:10296C0001D1039800E0029819214843216889009D
:10297C00B0FBF1F06421B0FBF1F21201130903FB7F
:10298C00110000013230B0FBF1F000F00F001043E9
:10299C00288105B030BD00BF00380140028A4FF2DB
:1029AC00FF031A400B881A434B881A438B881A432F
:1029BC00C9881143018270470029818903D041F4F1
:1029CC0000518181704721F400518181704718B406
:1029DC000B46DBB25B09012401F01F0104FA01F183
:1029EC00012B01D10C3004E0022B01D1103000E09E
:1029FC001430002A026803D01143016011BC7047E7
:102A0C00C9431140016011BC7047C905C90D8180D3
:102A1C0070478088C005C00D704718B40A46D2B202
:102A2C005209012301F01F04A340012A02D182891B
:102A3C001A4006E0022A02D1028A1A4001E0828A78
:102A4C001A400123090A03FA01F100880840002A00
:102A5C0005D0401E8041C043C00F12BC70470020FF
:102A6C0012BC70470122090A02FA01F189B2C9436A
:102A7C000180704710B588B0039000200490ADF829
:102A8C001400ADF818000C20ADF8160000200190D1
:102A9C004FF40070ADF808000020ADF80A00522089
:102AAC0000F0DCFC242000F0D9FC202000F0D6FC47
:102ABC000121194800F0E0F84FF48060ADF80000F7
:102ACC0003208DF8020018208DF80300134C00A988
:102ADC00204600F06FF84FF40060ADF800000420C1
:102AEC008DF8030000A9204600F064F8304C03A9CF
:102AFC002046FFF713FF01A92046FFF74FFF0121E6
:102B0C002046FFF759FF0649272000F0F1F827204F
:102B1C0000F0E6F808B010BD1000140000100140E1
:102B2C00312B000838B500F047FE15490A78521CC5
:102B3C000A7000F045FE1E4D40F2255421462846F1
:102B4C00FFF76BFF002809D02846FFF762FFC0B2E1
:102B5C00FEF74EFF21462846FFF784FF40F227740C
:102B6C0021462846FFF759FF002805D0FEF7A0FFA5
:102B7C0021462846FFF776FFBDE83140FDF704BB40
:102B8C0002020020012240F225510948FFF71FBF25
:102B9C0001460748FFF739BF002240F2277104486D
:102BAC00FFF715BF012240F227710148FFF70FBF55
:102BBC0000480040F0B4CA7802F00F02CB7813F052
:102BCC00100F01D08B781A430B88DBB2002B1DD071
:102BDC000568002317E001249C4026460F883740E7
:102BEC00B7420FD19E000F27B740FF433D4002FA7A
:102BFC0006F63543CE78282E00D14461CE78482E87
:102C0C0000D104615B1C082BE5D305600B884FF4E5
:102C1C008074A3421FD34568002319E0012403F1FB
:102C2C000806B44026460F883740B7420FD19E00A5
:102C3C000F27B740FF433D4002FA06F63543CE78E6
:102C4C00282E00D14461CE78482E00D104615B1C43
:102C5C00082BE3D34560F0BC704780680140084600
:102C6C00401E8041C043C00F7047C06880B270479F
:102C7C00016170474161704778B4174A146800F4D9
:102C8C0070231D0C83B200F44016B6F5401F06D11C
:102C9C006FF070652C4016683540156012E010F42A
:102CAC00801F07D0032606FA05F5ED432C4044F0AF
:102CBC00706407E0450D2D0103FA05F5ED432C403A
:102CCC0044F07064002904D0400D000103FA00F0B8
:102CDC000443146071BC70470400014000F068BDEF
:102CEC0080B52A2803D21030C0B200F05DFB01BDC4
:102CFC0038B505460C462A2D06D200F05DFD3A4942
:102D0C0041F8254000F05CFD31BD002054E001206D
:102D1C0052E0022050E003204EE004204CE005205D
:102D2C004AE0062048E0072046E0082044E009205D
:102D3C0042E00A2040E00B203EE00C203CE00D205D
:102D4C003AE00E2038E00F2036E0102034E011205D
:102D5C0032E0122030E013202EE014202CE015205D
:102D6C002AE0162028E0172026E0182024E019205D
:102D7C0022E01A2020E01B201EE01C201CE01D205D
:102D8C001AE01E2018E01F2016E0202014E021205D
:102D9C0012E0222010E023200EE024200CE025205D
:102DAC000AE0262008E0272006E0282004E029205D
:102DBC0002E000002A2000BF10B5044600F0FCFC25
:102DCC0008490A78521C0A7000F0FAFC2A2C05D229
:102DDC00054850F82400010000D08047BDE81040A1
:102DEC00FDF7D2B902020020E82200202D48002174
:102DFC00018070477047FDF7FCBFFDF7FCBFFDF786
:102E0C00FBBF034610464FF08072026040F8043D51
:102E1C006FF0010240F8042D4FF0123240F8042DEF
:102E2C004FF0033240F8042D4FF0023240F8042DDD
:102E3C004FF0013240F8042D40F8041D4FF01131D1
:102E4C0040F8041D4FF0103140F8041D4FF00931CB
:102E5C0040F8041D4FF0083140F8041D4FF00731C5
:102E6C0040F8041D4FF0063140F8041D4FF00531B9
:102E7C0040F8041D4FF0043140F8041D7047FDF775
:102E8C00BCBFFDF7BCBF80B5FDF7BAFF0548018894
:102E9C00491C018089B2642903D300210180FEF70B
:102EAC00ADFE01BD0827002080B500F027FB0649C8
:102EBC000A78521C0A7000F025FBFDF7BAF9BDE840
:102ECC000140FDF761B900BF0202002080B5FDF79B
:102EDC00DCFF4FF47A71B0FBF1F00649401E4860FC
:102EEC00086840F005000860086840F002000860BF
:102EFC0001BD00BF10E000E010B5FF2313EAD05471
:102F0C001DBF13EAD1529C429A423EE0A41ADA0742
:102F1C0080EA0103134042EA012142EA0020421AEE
:102F2C003CBF641E01EB4202090AB2FBF1F001FB4B
:102F3C0010221202B2FBF1FE01FB1E224EEA00200F
:102F4C001202B2FBF1FE01FB1E224EEA00207F347E
:102F5C000ADDFE2C27DA43EAC45452EAC07272F13D
:102F6C00004154EB500010BDD4F1020440F08070CD
:102F7C00192C1FDCC4F1200110FA01F10A4372F183
:102F8C00004120FA04F0584110BD9C421ABF03EADC
:102F9C00D1529A4210E080EA010E0EF0004340003C
:102FAC0005D0490017D1FF2043EAC05010BD49009D
:102FBC0008BFD343180010BD9C4205D1D21AF7D0DC
:102FCC0001F00041484010BD4A0212BF084648407B
:102FDC0000F0004010BD4AB90902B1FA81F29140EB
:102FEC0044B1A418C00140F0004098E7C90141F079
:102FFC00004152420002B0FA80F4A040141B8EE74C
:10300C0000000100020001000300010002000100A9
:10301C000400010002000100030001000200010095
:10302C000500010002000100030001000200010084
:10303C000400010002000100030001000200010075
:10304C000600010002000100030001000200010063
:10305C000400010002000100030001000200010055
:10306C000500010002000100030001000200010044
:10307C000400010002000100030001000200010035
:10308C000700010002000100030001000200010022
:10309C000400010002000100030001000200010015
:1030AC000500010002000100030001000200010004
:1030BC0004000100020001000300010002000100F5
:1030CC0006000100020001000300010002000100E3
:1030DC0004000100020001000300010002000100D5
:1030EC0005000100020001000300010002000100C4
:1030FC0004000100020001000300010002000100B5
:10310C0042680E4B1A400B681A430B7942EA0322B1
:10311C00426082680A4B1A40CB681A438B681A4388
:10312C004B7942EA43028260C26A22F47002097C43
:10313C00491EC9B242EA0151C1627047FFFEF0FF5D
:10314C00FDF7F1FF0029816803D041F00101816096
:10315C00704701229143816070470029816803D038
:10316C0041F4A0018160704721F4A0018160704797
:10317C0078B403250A290BD3C468A1F10A06754358
:10318C000726AE40F6433440AB402343C36008E00F
:10319C0004694D430726AE40F6433440AB4023430D
:1031AC0003610524072A0BD2436B521E62431F2472
:1031BC009440E443234091401943416371BC7047F0
:1031CC000D2A0BD2036BD21F62431F249440E4439D
:1031DC00234091401943016371BC7047C36A0D3A97
:1031EC0062431F249440E443234091401943C1623D
:1031FC0071BC7047C06C80B270470000FF2212EAAD
:10320C00D05C1DBF12EAD153944593422BE09C44F1
:10321C00D30780EA01021A4043EA002043EA012165
:10322C00A1FB0030410038BF40007CF17F010BDB7B
:10323C00FE294ADA5B0842EAC15153EA006373F192
:10324C00004C51EB10207047D1F1080CDCF120013F
:10325C002FDB5B0810FA01F10B4373F1004120FAEC
:10326C000CF05041704794451CBF02EAD153934275
:10327C0080EA010202F000421DD0400019D0490042
:10328C0017D05BB9634514D00902B1FA81F39940A8
:10329C00BCEB030CC00140F00040C1E70002B0FAE7
:1032AC0080FC10FA0CF0B3EB0C0CC90141F000419E
:1032BC00B6E71000704740000BD0490009D010F160
:1032CC00807F94BF11F1807F03E0FF2042EAC05061
:1032DC007047D04370470000F8B504462F4800787B
:1032EC0000281AD1002C18D000F008F90B490968F5
:1032FC0001F12E0293792B4D5E5DD779FF433E4051
:10330C005E5505D1264B1D78127AD2432A401A708D
:10331C00CC8500F0F7F8FDF74DF9F1BD2002002047
:10332C0070B51E4C2478002C01D0552070BD41EA9C
:10333C000004144303D1002B01D1542070BD3C294F
:10334C0001D3512070BD3C2A01D3522070BD4FF4E3
:10335C007A74A34201D3532070BD4FF461653C26AF
:10336C00714300FB0510101803FB04F1B1FBF4F1E1
:10337C0000FB0410040C80B2FFF7AEFF09E04FF421
:10338C000040FFF7A9FF4FF40040FFF7A5FF641EB4
:10339C00A4B22000F3D1002070BD00000202002076
:1033AC00060200200C02002010B504460F2835D868
:1033BC00DFE800F04C4C4C4C08131E4C4C4C4C4C65
:1033CC004C4C4C2900F0F8F922490A6842F480323E
:1033DC000A60BDE8104000F0F3B900F0EDF91D49AA
:1033EC000A6842F400320A60BDE8104000F0E8B907
:1033FC0000F0E2F917490A6842F480220A60BDE83D
:10340C00104000F0DDB900F0D7F91349CA6842F05A
:10341C000102CA60BDE8104000F0D2B90E48006845
:10342C0040012130C0B2844210D200F0C5F9103CEA
:10343C00211104EBD16149110122A4EB41139A40F3
:10344C00C9B2034B43F8212000F0BAF910BD00BFFC
:10345C0000E100E024ED00E004E000E001465D291D
:10346C0049D8DFE801F02F2F2F482F482F482F483D
:10347C002F484848484848484848484848484848D9
:10348C004848484848483748373737373737373749
:10349C003737373737374848484848484848484806
:1034AC0048484848484840404040404048484848C0
:1034BC0048404848404048404040404040404840D8
:1034CC00484040400C490A68012303FA00F01043BD
:1034DC000860704708494A680123203803FA00F055
:1034EC0010434860704704498A680123403803FA46
:1034FC0000F010438860704714100240EFF3108006
:10350C0072B6704780F3108870471B48FF2101701A
:10351C00002080F3098819480121017018481949C5
:10352C00016062B6FEE71648164901607047144800
:10353C0014490160704772B6EFF3098028B1203846
:10354C0080E8F00F10490968086000B50F48804703
:10355C005DF804EB0E480F490A7802700A480E49D0
:10356C000A680260106890E8F00F203080F3098838
:10357C004EF0040E62B6704722ED00E00702002008
:10358C0004ED00E000000010200200208B2E00084B
:10359C0004020020050200202802002038B5194C36
:1035AC000020FFF725F820600E4D00AA2946FCF7F5
:1035BC0097FD032001B500214FF4807003B4211D49
:1035CC00072003B4034604F5806200210648FEF789
:1035DC00AFF806B08DF8000000AA29460720FEF7C8
:1035EC0006F931BDC43900081536000880B500AAAB
:1035FC00002104480068FFF71FF801BD014800686E
:10360C00FFF798B8AC0E0020FEF7E6B918B40288A4
:10361C0002F08F0202800288CB884C8823431A4325
:10362C0002808A8882850A88028501228282054A64
:10363C00904202D0044A904201D1097A018611BC11
:10364C0070470000002C0140003401400029018823
:10365C0003D041F001010180704740F2FE3211406D
:10366C000180704701858282704781847047808C0D
:10367C007047000010B5124C8C212046FCF791FFCE
:10368C00204604F11C0100220DE0002300F8043B4D
:10369C0040F8061B3F2300F8013B002300F8113BC8
:1036AC001C31521C92B21346042BEED30021017034
:1036BC0041603F2181720021C1720248046010BD3B
:1036CC0090230020E426002010B5104CB421204695
:1036DC00FCF767FF2046002124230AE002FB03428B
:1036EC00243242603F220275002242752430491C6C
:1036FC0089B20A46042AF1D3002141603F210175A9
:10370C00002141750248046010BD00BF3422002026
:10371C00E826002010B582B00B4C0120FEF768FFA4
:10372C00206000AA0149FCF7DBFC13BDE03900085E
:10373C0080B500AA002104480068FEF77DFF01BD9A
:10374C0001480068FEF7F6BFE026002010B50B4CD0
:10375C0060212046FCF725FF204604F118010022C9
:10376C0004E040F8181B1831521C92B21346032B7C
:10377C00F7D3002101600248046010BD9C25002095
:10378C00EC26002009490A6802F038020A600A682F
:10379C0010430860704705490A6822F010020A605D
:1037AC000A681043086070470000000000200240C7
:1037BC0072B6704762B67047EFF3108072B67047FE
:1037CC0080F310887047B0FA80F0704790FAA0F040
:1037DC00704730BF704720BF704700004D6963725F
:1037EC0069756D2075432F4F532D4949000000001A
:1037FC0053544D6963726F2020202053544D333243
:10380C000000000075432F4F532D49493A20205694
:10381C00782E7979000000005469636B52617465ED
:10382C003A2020207878787800000000435055200A
:10383C0055736167653A78782025202000000000D8
:10384C004350552053706565643A7878204D487A1A
:10385C0000000000235469636B733A207878787801
:10386C0078787878000000002343747853773A20F6
:10387C00787878787878787800000000D13800086B
:10388C0010250000000200200000000000280AD0D3
:10389C00B0FA80F18840D1F19D01C905020672F1A0
:1038AC00004241EB1020704710B50448044C02E074
:1038BC0050F8041B8847A042FAD110BD8838000884
:1038CC0098380008002305E050F8041B41F8043B2D
:1038DC00121FFBD150F8042B002AF5D170470000C1
:1038EC005573657220492F46000000004B657962C4
:1038FC006F617264000000004F532D546D724C6F59
:10390C00636B00004F532D546D72536967000000B8
:10391C0000F076F8002801D0FFF7C6FF0020FCF776
:10392C0083FF00F068F8000080B50449086800289F
:10393C0003D00220ABBE0020086001BD0027002090
:10394C000000000001020304010203040607080939
:10395C000204060880B5FFF7E7FF02491820ABBE4A
:10396C00FCE7C046260002005573657220494620CC
:10397C004D626F780000000075432F4F532D49495D
:10398C002049646C6500000075432F4F532D494945
:10399C00205374617400000050726F6265204F53A5
:1039AC0020506C7567496E0075432F4F532D494954
:1039BC0020546D720000000050726F6265205253EB
:1039CC002D32333200000000537461727420546144
:1039DC00736B000075432F4C4344204C6F636B009A
:1039EC00FEE7FEE7FEE7FEE7FEE7FEE707463846A2
:1039FC00FFF7B0FFFBE780B5FFF7F8BF785634123E
:103A0C000120704701000A00100001002000400155
:103A1C0001001C0014000200050010001F00010032
:103A2C000100050010002400B40001000400010096
:103A3C000400180004000100040001000100010052
:103A4C008000010012001000010080000100010044
:0E3A5C0020005C00E80301001E011A0E7047F6
:040000050800391D99
:00000001FF
